{
  "contractName": "Authentication",
  "abi": [
    {
      "constant": false,
      "inputs": [
        {
          "name": "name",
          "type": "bytes32"
        },
        {
          "name": "email",
          "type": "bytes32"
        },
        {
          "name": "username",
          "type": "bytes32"
        }
      ],
      "name": "signup",
      "outputs": [
        {
          "name": "",
          "type": "bytes32"
        }
      ],
      "payable": true,
      "stateMutability": "payable",
      "type": "function"
    },
    {
      "constant": false,
      "inputs": [],
      "name": "kill",
      "outputs": [],
      "payable": false,
      "stateMutability": "nonpayable",
      "type": "function"
    },
    {
      "constant": true,
      "inputs": [
        {
          "name": "_address",
          "type": "address"
        }
      ],
      "name": "getUser",
      "outputs": [
        {
          "name": "",
          "type": "bytes32[]"
        }
      ],
      "payable": false,
      "stateMutability": "view",
      "type": "function"
    },
    {
      "constant": true,
      "inputs": [],
      "name": "owner",
      "outputs": [
        {
          "name": "",
          "type": "address"
        }
      ],
      "payable": false,
      "stateMutability": "view",
      "type": "function"
    },
    {
      "constant": false,
      "inputs": [
        {
          "name": "name",
          "type": "bytes32"
        },
        {
          "name": "email",
          "type": "bytes32"
        },
        {
          "name": "username",
          "type": "bytes32"
        }
      ],
      "name": "update",
      "outputs": [
        {
          "name": "",
          "type": "bytes32"
        }
      ],
      "payable": true,
      "stateMutability": "payable",
      "type": "function"
    },
    {
      "constant": true,
      "inputs": [],
      "name": "login",
      "outputs": [
        {
          "name": "",
          "type": "bytes32[]"
        }
      ],
      "payable": false,
      "stateMutability": "view",
      "type": "function"
    },
    {
      "constant": false,
      "inputs": [
        {
          "name": "newOwner",
          "type": "address"
        }
      ],
      "name": "transferOwnership",
      "outputs": [],
      "payable": false,
      "stateMutability": "nonpayable",
      "type": "function"
    }
  ],
  "bytecode": "0x6060604052336000806101000a81548173ffffffffffffffffffffffffffffffffffffffff021916908373ffffffffffffffffffffffffffffffffffffffff160217905550610bdb806100536000396000f300606060405260043610610083576000357c0100000000000000000000000000000000000000000000000000000000900463ffffffff1680631a2dc6341461008857806341c0e1b5146100da5780636f77926b146100ef5780638da5cb5b1461017d5780639c0d2525146101d2578063b34e97e814610224578063f2fde38b1461028e575b600080fd5b6100bc60048080356000191690602001909190803560001916906020019091908035600019169060200190919050506102c7565b60405180826000191660001916815260200191505060405180910390f35b34156100e557600080fd5b6100ed6104ac565b005b34156100fa57600080fd5b610126600480803573ffffffffffffffffffffffffffffffffffffffff1690602001909190505061053d565b6040518080602001828103825283818151815260200191508051906020019060200280838360005b8381101561016957808201518184015260208101905061014e565b505050509050019250505060405180910390f35b341561018857600080fd5b6101906106dc565b604051808273ffffffffffffffffffffffffffffffffffffffff1673ffffffffffffffffffffffffffffffffffffffff16815260200191505060405180910390f35b6102066004808035600019169060200190919080356000191690602001909190803560001916906020019091905050610701565b60405180826000191660001916815260200191505060405180910390f35b341561022f57600080fd5b6102376108fb565b6040518080602001828103825283818151815260200191508051906020019060200280838360005b8381101561027a57808201518184015260208101905061025f565b505050509050019250505060405180910390f35b341561029957600080fd5b6102c5600480803573ffffffffffffffffffffffffffffffffffffffff16906020019091905050610acb565b005b60008360006001028160001916141515156102e157600080fd5b6000600102600160003373ffffffffffffffffffffffffffffffffffffffff1673ffffffffffffffffffffffffffffffffffffffff1681526020019081526020016000206000015460001916141561045e5784600160003373ffffffffffffffffffffffffffffffffffffffff1673ffffffffffffffffffffffffffffffffffffffff168152602001908152602001600020600001816000191690555083600160003373ffffffffffffffffffffffffffffffffffffffff1673ffffffffffffffffffffffffffffffffffffffff168152602001908152602001600020600101816000191690555082600160003373ffffffffffffffffffffffffffffffffffffffff1673ffffffffffffffffffffffffffffffffffffffff1681526020019081526020016000206002018160001916905550600160003373ffffffffffffffffffffffffffffffffffffffff1673ffffffffffffffffffffffffffffffffffffffff1681526020019081526020016000206000015491506104a4565b600160003373ffffffffffffffffffffffffffffffffffffffff1673ffffffffffffffffffffffffffffffffffffffff1681526020019081526020016000206000015491505b509392505050565b6000809054906101000a900473ffffffffffffffffffffffffffffffffffffffff1673ffffffffffffffffffffffffffffffffffffffff163373ffffffffffffffffffffffffffffffffffffffff16141561053b576000809054906101000a900473ffffffffffffffffffffffffffffffffffffffff1673ffffffffffffffffffffffffffffffffffffffff16ff5b565b610545610b9b565b61054d610b9b565b60008373ffffffffffffffffffffffffffffffffffffffff161415156106d557600360405180591061057c5750595b90808252806020026020018201604052509050600160008473ffffffffffffffffffffffffffffffffffffffff1673ffffffffffffffffffffffffffffffffffffffff168152602001908152602001600020600001548160008151811015156105e157fe5b906020019060200201906000191690816000191681525050600160008473ffffffffffffffffffffffffffffffffffffffff1673ffffffffffffffffffffffffffffffffffffffff1681526020019081526020016000206001015481600181518110151561064b57fe5b906020019060200201906000191690816000191681525050600160008473ffffffffffffffffffffffffffffffffffffffff1673ffffffffffffffffffffffffffffffffffffffff168152602001908152602001600020600201548160028151811015156106b557fe5b9060200190602002019060001916908160001916815250508091506106d6565b5b50919050565b6000809054906101000a900473ffffffffffffffffffffffffffffffffffffffff1681565b600083600060010281600019161415151561071b57600080fd5b6000600102600160003373ffffffffffffffffffffffffffffffffffffffff1673ffffffffffffffffffffffffffffffffffffffff16815260200190815260200160002060000154600019161415151561077457600080fd5b6000600102600160003373ffffffffffffffffffffffffffffffffffffffff1673ffffffffffffffffffffffffffffffffffffffff16815260200190815260200160002060000154600019161415156108f25784600160003373ffffffffffffffffffffffffffffffffffffffff1673ffffffffffffffffffffffffffffffffffffffff168152602001908152602001600020600001816000191690555083600160003373ffffffffffffffffffffffffffffffffffffffff1673ffffffffffffffffffffffffffffffffffffffff168152602001908152602001600020600101816000191690555082600160003373ffffffffffffffffffffffffffffffffffffffff1673ffffffffffffffffffffffffffffffffffffffff1681526020019081526020016000206002018160001916905550600160003373ffffffffffffffffffffffffffffffffffffffff1673ffffffffffffffffffffffffffffffffffffffff1681526020019081526020016000206000015491506108f3565b5b509392505050565b610903610b9b565b61090b610b9b565b6000600102600160003373ffffffffffffffffffffffffffffffffffffffff1673ffffffffffffffffffffffffffffffffffffffff16815260200190815260200160002060000154600019161415151561096457600080fd5b60036040518059106109735750595b90808252806020026020018201604052509050600160003373ffffffffffffffffffffffffffffffffffffffff1673ffffffffffffffffffffffffffffffffffffffff168152602001908152602001600020600001548160008151811015156109d857fe5b906020019060200201906000191690816000191681525050600160003373ffffffffffffffffffffffffffffffffffffffff1673ffffffffffffffffffffffffffffffffffffffff16815260200190815260200160002060010154816001815181101515610a4257fe5b906020019060200201906000191690816000191681525050600160003373ffffffffffffffffffffffffffffffffffffffff1673ffffffffffffffffffffffffffffffffffffffff16815260200190815260200160002060020154816002815181101515610aac57fe5b9060200190602002019060001916908160001916815250508091505090565b6000809054906101000a900473ffffffffffffffffffffffffffffffffffffffff1673ffffffffffffffffffffffffffffffffffffffff163373ffffffffffffffffffffffffffffffffffffffff161415610b9857600073ffffffffffffffffffffffffffffffffffffffff168173ffffffffffffffffffffffffffffffffffffffff16141515610b9757806000806101000a81548173ffffffffffffffffffffffffffffffffffffffff021916908373ffffffffffffffffffffffffffffffffffffffff1602179055505b5b50565b6020604051908101604052806000815250905600a165627a7a723058208ad9db4b420a56d0281376b5acc0e6eff349721cd62dd42cb73eb26675b880e70029",
  "source": "pragma solidity ^0.4.2;\n\nimport './zeppelin/lifecycle/Killable.sol';\n\ncontract Authentication is Killable {\n  struct User {\n    bytes32 name;\n    bytes32 email;\n    bytes32 username;\n  }\n\n  mapping (address => User) private users;\n\n  uint private id; // Stores user id temporarily\n\n  modifier onlyExistingUser {\n    // Check if user exists or terminate\n\n    require(!(users[msg.sender].name == 0x0));\n    _;\n  }\n\n  modifier onlyValidName(bytes32 name) {\n    // Only valid names allowed\n\n    require(!(name == 0x0));\n    _;\n  }\n\n  function login() constant\n  public\n  onlyExistingUser\n  returns (bytes32[]) \n  {\n    bytes32[] memory user = new bytes32[](3);\n    user[0] = users[msg.sender].name;\n    user[1] = users[msg.sender].email;\n    user[2] = users[msg.sender].username;\n\n    return (user);\n  }\n\n  function signup(bytes32 name, bytes32 email, bytes32 username)\n  public\n  payable\n  onlyValidName(name)\n  returns (bytes32) \n  {\n    // Check if user exists.\n    // If yes, return user name.\n    // If no, check if name was sent.\n    // If yes, create and return user.\n\n    if (users[msg.sender].name == 0x0) {\n        users[msg.sender].name = name;\n        users[msg.sender].email = email;\n        users[msg.sender].username = username;\n\n        return (users[msg.sender].name);\n    }\n\n    return (users[msg.sender].name);\n  }\n\n  function update(bytes32 name, bytes32 email, bytes32 username)\n  public\n  payable\n  onlyValidName(name)\n  onlyExistingUser\n  returns (bytes32) \n  {\n    // Update user details.\n\n    if (users[msg.sender].name != 0x0) {\n        users[msg.sender].name = name;\n        users[msg.sender].email = email;\n        users[msg.sender].username = username;\n\n        return (users[msg.sender].name);\n    }\n  }\n\n  function getUser(address _address)\n  constant \n  public \n  returns (bytes32[])\n  {\n    // Only proceed if address is sent\n    if (_address != 0x0) {\n      bytes32[] memory user = new bytes32[](3);\n      user[0] = users[_address].name;\n      user[1] = users[_address].email;\n      user[2] = users[_address].username;\n\n      return (user);\n    }\n  }\n}\n",
  "sourcePath": "/Users/zachshaw/projects/personal/ticketchain/contracts/Authentication.sol",
  "compiler": {
    "name": "solc",
    "version": "0.4.18+commit.9cf6e910.Emscripten.clang"
  },
  "schemaVersion": "1.0.1",
  "updatedAt": "2018-02-05T09:10:10.732Z"
}