{
  "contractName": "TicketExchange",
  "abi": [
    {
      "constant": true,
      "inputs": [],
      "name": "getTicketsForSale",
      "outputs": [
        {
          "name": "",
          "type": "uint256[]"
        }
      ],
      "payable": false,
      "stateMutability": "view",
      "type": "function"
    },
    {
      "constant": false,
      "inputs": [],
      "name": "kill",
      "outputs": [],
      "payable": false,
      "stateMutability": "nonpayable",
      "type": "function"
    },
    {
      "constant": true,
      "inputs": [
        {
          "name": "",
          "type": "uint256"
        }
      ],
      "name": "tickets",
      "outputs": [
        {
          "name": "id",
          "type": "uint256"
        },
        {
          "name": "seller",
          "type": "address"
        },
        {
          "name": "buyer",
          "type": "address"
        },
        {
          "name": "eventId",
          "type": "string"
        },
        {
          "name": "eventName",
          "type": "string"
        },
        {
          "name": "price",
          "type": "uint256"
        }
      ],
      "payable": false,
      "stateMutability": "view",
      "type": "function"
    },
    {
      "constant": false,
      "inputs": [
        {
          "name": "_eventId",
          "type": "string"
        },
        {
          "name": "_eventName",
          "type": "string"
        },
        {
          "name": "_price",
          "type": "uint256"
        }
      ],
      "name": "sellTicket",
      "outputs": [],
      "payable": false,
      "stateMutability": "nonpayable",
      "type": "function"
    },
    {
      "constant": false,
      "inputs": [
        {
          "name": "_id",
          "type": "uint256"
        }
      ],
      "name": "buyTicket",
      "outputs": [],
      "payable": true,
      "stateMutability": "payable",
      "type": "function"
    },
    {
      "constant": true,
      "inputs": [],
      "name": "owner",
      "outputs": [
        {
          "name": "",
          "type": "address"
        }
      ],
      "payable": false,
      "stateMutability": "view",
      "type": "function"
    },
    {
      "constant": true,
      "inputs": [],
      "name": "getNumberOfTickets",
      "outputs": [
        {
          "name": "",
          "type": "uint256"
        }
      ],
      "payable": false,
      "stateMutability": "view",
      "type": "function"
    },
    {
      "constant": false,
      "inputs": [
        {
          "name": "newOwner",
          "type": "address"
        }
      ],
      "name": "transferOwnership",
      "outputs": [],
      "payable": false,
      "stateMutability": "nonpayable",
      "type": "function"
    },
    {
      "anonymous": false,
      "inputs": [
        {
          "indexed": true,
          "name": "_id",
          "type": "uint256"
        },
        {
          "indexed": true,
          "name": "_seller",
          "type": "address"
        },
        {
          "indexed": false,
          "name": "_eventName",
          "type": "string"
        },
        {
          "indexed": false,
          "name": "_price",
          "type": "uint256"
        }
      ],
      "name": "SellTicketEvent",
      "type": "event"
    },
    {
      "anonymous": false,
      "inputs": [
        {
          "indexed": true,
          "name": "_id",
          "type": "uint256"
        },
        {
          "indexed": true,
          "name": "_seller",
          "type": "address"
        },
        {
          "indexed": true,
          "name": "_buyer",
          "type": "address"
        },
        {
          "indexed": false,
          "name": "_eventName",
          "type": "string"
        },
        {
          "indexed": false,
          "name": "_price",
          "type": "uint256"
        }
      ],
      "name": "BuyTicketEvent",
      "type": "event"
    }
  ],
  "bytecode": "0x6060604052336000806101000a81548173ffffffffffffffffffffffffffffffffffffffff021916908373ffffffffffffffffffffffffffffffffffffffff160217905550610ddb806100536000396000f30060606040526004361061008e576000357c0100000000000000000000000000000000000000000000000000000000900463ffffffff16806335fe12d81461009357806341c0e1b5146100fd57806350b4471214610112578063574af781146102c857806367dd74ca146103715780638da5cb5b146103895780639582260a146103de578063f2fde38b14610407575b600080fd5b341561009e57600080fd5b6100a6610440565b6040518080602001828103825283818151815260200191508051906020019060200280838360005b838110156100e95780820151818401526020810190506100ce565b505050509050019250505060405180910390f35b341561010857600080fd5b6101106105de565b005b341561011d57600080fd5b610133600480803590602001909190505061066f565b604051808781526020018673ffffffffffffffffffffffffffffffffffffffff1673ffffffffffffffffffffffffffffffffffffffff1681526020018573ffffffffffffffffffffffffffffffffffffffff1673ffffffffffffffffffffffffffffffffffffffff16815260200180602001806020018481526020018381038352868181546001816001161561010002031660029004815260200191508054600181600116156101000203166002900480156102305780601f1061020557610100808354040283529160200191610230565b820191906000526020600020905b81548152906001019060200180831161021357829003601f168201915b50508381038252858181546001816001161561010002031660029004815260200191508054600181600116156101000203166002900480156102b35780601f10610288576101008083540402835291602001916102b3565b820191906000526020600020905b81548152906001019060200180831161029657829003601f168201915b50509850505050505050505060405180910390f35b34156102d357600080fd5b61036f600480803590602001908201803590602001908080601f0160208091040260200160405190810160405280939291908181526020018383808284378201915050505050509190803590602001908201803590602001908080601f016020809104026020016040519081016040528093929190818152602001838380828437820191505050505050919080359060200190919050506106e9565b005b610387600480803590602001909190505061090f565b005b341561039457600080fd5b61039c610bf7565b604051808273ffffffffffffffffffffffffffffffffffffffff1673ffffffffffffffffffffffffffffffffffffffff16815260200191505060405180910390f35b34156103e957600080fd5b6103f1610c1c565b6040518082815260200191505060405180910390f35b341561041257600080fd5b61043e600480803573ffffffffffffffffffffffffffffffffffffffff16906020019091905050610c26565b005b610448610cf6565b610450610cf6565b60008061045b610cf6565b600080600254141561048e5760006040518059106104765750595b908082528060200260200182016040525095506105d6565b60025460405180591061049e5750595b9080825280602002602001820160405250945060009350600192505b600254831115156105635760006001600085815260200190815260200160002060020160009054906101000a900473ffffffffffffffffffffffffffffffffffffffff1673ffffffffffffffffffffffffffffffffffffffff161415610556576001600084815260200190815260200160002060000154858581518110151561053f57fe5b906020019060200201818152505083806001019450505b82806001019350506104ba565b836040518059106105715750595b90808252806020026020018201604052509150600090505b838110156105d257848181518110151561059f57fe5b9060200190602002015182828151811015156105b757fe5b90602001906020020181815250508080600101915050610589565b8195505b505050505090565b6000809054906101000a900473ffffffffffffffffffffffffffffffffffffffff1673ffffffffffffffffffffffffffffffffffffffff163373ffffffffffffffffffffffffffffffffffffffff16141561066d576000809054906101000a900473ffffffffffffffffffffffffffffffffffffffff1673ffffffffffffffffffffffffffffffffffffffff16ff5b565b60016020528060005260406000206000915090508060000154908060010160009054906101000a900473ffffffffffffffffffffffffffffffffffffffff16908060020160009054906101000a900473ffffffffffffffffffffffffffffffffffffffff1690806003019080600401908060050154905086565b60026000815480929190600101919050555060c06040519081016040528060025481526020013373ffffffffffffffffffffffffffffffffffffffff168152602001600073ffffffffffffffffffffffffffffffffffffffff168152602001848152602001838152602001828152506001600060025481526020019081526020016000206000820151816000015560208201518160010160006101000a81548173ffffffffffffffffffffffffffffffffffffffff021916908373ffffffffffffffffffffffffffffffffffffffff16021790555060408201518160020160006101000a81548173ffffffffffffffffffffffffffffffffffffffff021916908373ffffffffffffffffffffffffffffffffffffffff1602179055506060820151816003019080519060200190610821929190610d0a565b50608082015181600401908051906020019061083e929190610d0a565b5060a082015181600501559050503373ffffffffffffffffffffffffffffffffffffffff166002547f5035671cb930bfcad8013d41f22ad562acbeaeb8c1201fb588e400d3d34b3a9884846040518080602001838152602001828103825284818151815260200191508051906020019080838360005b838110156108cf5780820151818401526020810190506108b4565b50505050905090810190601f1680156108fc5780820380516001836020036101000a031916815260200191505b50935050505060405180910390a3505050565b60008060025411151561092157600080fd5b60008211801561093357506002548211155b151561093e57600080fd5b60016000838152602001908152602001600020905060008160020160009054906101000a900473ffffffffffffffffffffffffffffffffffffffff1673ffffffffffffffffffffffffffffffffffffffff1614151561099c57600080fd5b3373ffffffffffffffffffffffffffffffffffffffff168160010160009054906101000a900473ffffffffffffffffffffffffffffffffffffffff1673ffffffffffffffffffffffffffffffffffffffff16141515156109fb57600080fd5b348160050154141515610a0d57600080fd5b338160020160006101000a81548173ffffffffffffffffffffffffffffffffffffffff021916908373ffffffffffffffffffffffffffffffffffffffff1602179055508060010160009054906101000a900473ffffffffffffffffffffffffffffffffffffffff1673ffffffffffffffffffffffffffffffffffffffff166108fc349081150290604051600060405180830381858888f193505050501515610ab457600080fd5b8060020160009054906101000a900473ffffffffffffffffffffffffffffffffffffffff1673ffffffffffffffffffffffffffffffffffffffff168160010160009054906101000a900473ffffffffffffffffffffffffffffffffffffffff1673ffffffffffffffffffffffffffffffffffffffff16837f8d79d27a773e3771c71074a8d7443cab9dde90a2318d5c242ac2f5d9db3d66378460040185600501546040518080602001838152602001828103825284818154600181600116156101000203166002900481526020019150805460018160011615610100020316600290048015610be45780601f10610bb957610100808354040283529160200191610be4565b820191906000526020600020905b815481529060010190602001808311610bc757829003601f168201915b5050935050505060405180910390a45050565b6000809054906101000a900473ffffffffffffffffffffffffffffffffffffffff1681565b6000600254905090565b6000809054906101000a900473ffffffffffffffffffffffffffffffffffffffff1673ffffffffffffffffffffffffffffffffffffffff163373ffffffffffffffffffffffffffffffffffffffff161415610cf357600073ffffffffffffffffffffffffffffffffffffffff168173ffffffffffffffffffffffffffffffffffffffff16141515610cf257806000806101000a81548173ffffffffffffffffffffffffffffffffffffffff021916908373ffffffffffffffffffffffffffffffffffffffff1602179055505b5b50565b602060405190810160405280600081525090565b828054600181600116156101000203166002900490600052602060002090601f016020900481019282601f10610d4b57805160ff1916838001178555610d79565b82800160010185558215610d79579182015b82811115610d78578251825591602001919060010190610d5d565b5b509050610d869190610d8a565b5090565b610dac91905b80821115610da8576000816000905550600101610d90565b5090565b905600a165627a7a72305820d6eb8839821d3e9f538ee6777e8d4d855d9c0bdf662d460bea6a06de3614020f0029",
  "source": "pragma solidity ^0.4.11;\n\nimport './zeppelin/lifecycle/Killable.sol';\n\ncontract TicketExchange is Killable {\n  struct Ticket {\n    uint id;\n    address seller;\n    address buyer;\n    string eventId;\n    string eventName;\n    uint256 price;\n  }\n\n  // State variables\n  mapping(uint => Ticket) public tickets;\n  uint ticketCounter;\n\n  // Events\n  event SellTicketEvent (\n    uint indexed _id,\n    address indexed _seller,\n    string _eventName,\n    uint256 _price\n  );\n\n  event BuyTicketEvent (\n    uint indexed _id,\n    address indexed _seller,\n    address indexed _buyer,\n    string _eventName,\n    uint256 _price\n  );\n\n  function sellTicket(string _eventId, string _eventName, uint _price) public {\n    // New ticket\n    ticketCounter++;\n\n    // Storing ticket\n    tickets[ticketCounter] = Ticket(\n      ticketCounter,\n      msg.sender,\n      0x0,\n      _eventId,\n      _eventName,\n      _price\n    );\n\n    // Fire SellTicket event\n    SellTicketEvent(ticketCounter, msg.sender, _eventName, _price);\n  }\n\n  function buyTicket(uint _id) payable public {\n    // At least one ticket for sale\n    require(ticketCounter > 0);\n    // Ticket actually exists (Will never be zero or over ticketCounters value)\n    require(_id > 0 && _id <= ticketCounter);\n    \n    // Ticket exists - Fetch from array\n    Ticket storage ticket = tickets[_id];\n\n    // Ensure ticket hasn't already been bought\n    require(ticket.buyer == 0x0);\n    // Ensure ticket buyer isn't the same as the seller\n    require(ticket.seller != msg.sender);\n    // Ensure buyers value matches price in Ether\n    require(ticket.price == msg.value);\n    // Store buyers address\n    ticket.buyer = msg.sender;\n\n    // All checks passed and ticket updated with buyers details so transfer value\n    ticket.seller.transfer(msg.value);\n\n    // Trigger buy event\n    BuyTicketEvent(_id, ticket.seller, ticket.buyer, ticket.eventName, ticket.price);\n  }\n\n  function getNumberOfTickets() public constant returns (uint) {\n    return ticketCounter;\n  }\n\n  // Get all tickets for sale returning an array of ticketIds\n  function getTicketsForSale() public constant returns (uint[]) {\n    // Check at least one ticket for sale\n    if (ticketCounter == 0) {\n      // Returns array of length zero so frontend can handle this\n      return new uint[](0);\n    }\n\n    // Prepare array for all tickets as ticketIds with new array length ticketCounter\n    uint[] memory ticketIds = new uint[](ticketCounter);\n\n    uint numberOfTicketsForSale = 0;\n\n    for (uint i = 1; i <= ticketCounter; i++) {\n      if (tickets[i].buyer == 0x0) {\n        ticketIds[numberOfTicketsForSale] = tickets[i].id;\n        numberOfTicketsForSale++;\n      }\n    }\n\n    // Create new array just for tickets that have not been sold yet\n    uint[] memory ticketsForSale = new uint[](numberOfTicketsForSale);\n\n    for (uint j = 0; j < numberOfTicketsForSale; j++) {\n      ticketsForSale[j] = ticketIds[j];\n    }\n    \n    return (ticketsForSale);\n  }\n }",
  "sourcePath": "/Users/zachshaw/projects/personal/ticketchain/contracts/TicketExchange.sol",
  "compiler": {
    "name": "solc",
    "version": "0.4.18+commit.9cf6e910.Emscripten.clang"
  },
  "schemaVersion": "1.0.1",
  "updatedAt": "2018-02-05T14:31:55.120Z"
}