{
  "contractName": "TicketExchange",
  "abi": [
    {
      "constant": false,
      "inputs": [
        {
          "name": "_eventId",
          "type": "string"
        },
        {
          "name": "_eventName",
          "type": "string"
        },
        {
          "name": "_eventDescription",
          "type": "string"
        },
        {
          "name": "_price",
          "type": "uint256"
        }
      ],
      "name": "sellTicket",
      "outputs": [],
      "payable": false,
      "stateMutability": "nonpayable",
      "type": "function"
    },
    {
      "constant": false,
      "inputs": [],
      "name": "kill",
      "outputs": [],
      "payable": false,
      "stateMutability": "nonpayable",
      "type": "function"
    },
    {
      "constant": true,
      "inputs": [
        {
          "name": "",
          "type": "uint256"
        }
      ],
      "name": "tickets",
      "outputs": [
        {
          "name": "id",
          "type": "uint256"
        },
        {
          "name": "seller",
          "type": "address"
        },
        {
          "name": "buyer",
          "type": "address"
        },
        {
          "name": "eventId",
          "type": "string"
        },
        {
          "name": "eventName",
          "type": "string"
        },
        {
          "name": "eventDescription",
          "type": "string"
        },
        {
          "name": "price",
          "type": "uint256"
        }
      ],
      "payable": false,
      "stateMutability": "view",
      "type": "function"
    },
    {
      "constant": false,
      "inputs": [
        {
          "name": "_id",
          "type": "uint256"
        }
      ],
      "name": "buyTicket",
      "outputs": [],
      "payable": true,
      "stateMutability": "payable",
      "type": "function"
    },
    {
      "constant": true,
      "inputs": [],
      "name": "owner",
      "outputs": [
        {
          "name": "",
          "type": "address"
        }
      ],
      "payable": false,
      "stateMutability": "view",
      "type": "function"
    },
    {
      "constant": true,
      "inputs": [],
      "name": "getNumberOfTickets",
      "outputs": [
        {
          "name": "",
          "type": "uint256"
        }
      ],
      "payable": false,
      "stateMutability": "view",
      "type": "function"
    },
    {
      "constant": false,
      "inputs": [
        {
          "name": "newOwner",
          "type": "address"
        }
      ],
      "name": "transferOwnership",
      "outputs": [],
      "payable": false,
      "stateMutability": "nonpayable",
      "type": "function"
    },
    {
      "anonymous": false,
      "inputs": [
        {
          "indexed": true,
          "name": "_id",
          "type": "uint256"
        },
        {
          "indexed": true,
          "name": "_seller",
          "type": "address"
        },
        {
          "indexed": false,
          "name": "_eventName",
          "type": "string"
        },
        {
          "indexed": false,
          "name": "_price",
          "type": "uint256"
        }
      ],
      "name": "SellTicketEvent",
      "type": "event"
    },
    {
      "anonymous": false,
      "inputs": [
        {
          "indexed": true,
          "name": "_id",
          "type": "uint256"
        },
        {
          "indexed": true,
          "name": "_seller",
          "type": "address"
        },
        {
          "indexed": true,
          "name": "_buyer",
          "type": "address"
        },
        {
          "indexed": false,
          "name": "_eventName",
          "type": "string"
        },
        {
          "indexed": false,
          "name": "_price",
          "type": "uint256"
        }
      ],
      "name": "BuyTicketEvent",
      "type": "event"
    }
  ],
  "bytecode": "0x6060604052336000806101000a81548173ffffffffffffffffffffffffffffffffffffffff021916908373ffffffffffffffffffffffffffffffffffffffff160217905550610ca9806100536000396000f300606060405260043610610083576000357c0100000000000000000000000000000000000000000000000000000000900463ffffffff1680633652e3a51461008857806341c0e1b51461017457806350b447121461018957806367dd74ca146103c85780638da5cb5b146103e05780639582260a14610435578063f2fde38b1461045e575b600080fd5b341561009357600080fd5b610172600480803590602001908201803590602001908080601f0160208091040260200160405190810160405280939291908181526020018383808284378201915050505050509190803590602001908201803590602001908080601f0160208091040260200160405190810160405280939291908181526020018383808284378201915050505050509190803590602001908201803590602001908080601f01602080910402602001604051908101604052809392919081815260200183838082843782019150505050505091908035906020019091905050610497565b005b341561017f57600080fd5b6101876106e1565b005b341561019457600080fd5b6101aa6004808035906020019091905050610772565b604051808881526020018773ffffffffffffffffffffffffffffffffffffffff1673ffffffffffffffffffffffffffffffffffffffff1681526020018673ffffffffffffffffffffffffffffffffffffffff1673ffffffffffffffffffffffffffffffffffffffff1681526020018060200180602001806020018581526020018481038452888181546001816001161561010002031660029004815260200191508054600181600116156101000203166002900480156102ab5780601f10610280576101008083540402835291602001916102ab565b820191906000526020600020905b81548152906001019060200180831161028e57829003601f168201915b505084810383528781815460018160011615610100020316600290048152602001915080546001816001161561010002031660029004801561032e5780601f106103035761010080835404028352916020019161032e565b820191906000526020600020905b81548152906001019060200180831161031157829003601f168201915b50508481038252868181546001816001161561010002031660029004815260200191508054600181600116156101000203166002900480156103b15780601f10610386576101008083540402835291602001916103b1565b820191906000526020600020905b81548152906001019060200180831161039457829003601f168201915b50509a505050505050505050505060405180910390f35b6103de60048080359060200190919050506107f1565b005b34156103eb57600080fd5b6103f3610ad9565b604051808273ffffffffffffffffffffffffffffffffffffffff1673ffffffffffffffffffffffffffffffffffffffff16815260200191505060405180910390f35b341561044057600080fd5b610448610afe565b6040518082815260200191505060405180910390f35b341561046957600080fd5b610495600480803573ffffffffffffffffffffffffffffffffffffffff16906020019091905050610b08565b005b60026000815480929190600101919050555060e06040519081016040528060025481526020013373ffffffffffffffffffffffffffffffffffffffff168152602001600073ffffffffffffffffffffffffffffffffffffffff168152602001858152602001848152602001838152602001828152506001600060025481526020019081526020016000206000820151816000015560208201518160010160006101000a81548173ffffffffffffffffffffffffffffffffffffffff021916908373ffffffffffffffffffffffffffffffffffffffff16021790555060408201518160020160006101000a81548173ffffffffffffffffffffffffffffffffffffffff021916908373ffffffffffffffffffffffffffffffffffffffff16021790555060608201518160030190805190602001906105d5929190610bd8565b5060808201518160040190805190602001906105f2929190610bd8565b5060a082015181600501908051906020019061060f929190610bd8565b5060c082015181600601559050503373ffffffffffffffffffffffffffffffffffffffff166002547f5035671cb930bfcad8013d41f22ad562acbeaeb8c1201fb588e400d3d34b3a9885846040518080602001838152602001828103825284818151815260200191508051906020019080838360005b838110156106a0578082015181840152602081019050610685565b50505050905090810190601f1680156106cd5780820380516001836020036101000a031916815260200191505b50935050505060405180910390a350505050565b6000809054906101000a900473ffffffffffffffffffffffffffffffffffffffff1673ffffffffffffffffffffffffffffffffffffffff163373ffffffffffffffffffffffffffffffffffffffff161415610770576000809054906101000a900473ffffffffffffffffffffffffffffffffffffffff1673ffffffffffffffffffffffffffffffffffffffff16ff5b565b60016020528060005260406000206000915090508060000154908060010160009054906101000a900473ffffffffffffffffffffffffffffffffffffffff16908060020160009054906101000a900473ffffffffffffffffffffffffffffffffffffffff16908060030190806004019080600501908060060154905087565b60008060025411151561080357600080fd5b60008211801561081557506002548211155b151561082057600080fd5b60016000838152602001908152602001600020905060008160020160009054906101000a900473ffffffffffffffffffffffffffffffffffffffff1673ffffffffffffffffffffffffffffffffffffffff1614151561087e57600080fd5b3373ffffffffffffffffffffffffffffffffffffffff168160010160009054906101000a900473ffffffffffffffffffffffffffffffffffffffff1673ffffffffffffffffffffffffffffffffffffffff16141515156108dd57600080fd5b3481600601541415156108ef57600080fd5b338160020160006101000a81548173ffffffffffffffffffffffffffffffffffffffff021916908373ffffffffffffffffffffffffffffffffffffffff1602179055508060010160009054906101000a900473ffffffffffffffffffffffffffffffffffffffff1673ffffffffffffffffffffffffffffffffffffffff166108fc349081150290604051600060405180830381858888f19350505050151561099657600080fd5b8060020160009054906101000a900473ffffffffffffffffffffffffffffffffffffffff1673ffffffffffffffffffffffffffffffffffffffff168160010160009054906101000a900473ffffffffffffffffffffffffffffffffffffffff1673ffffffffffffffffffffffffffffffffffffffff16837f8d79d27a773e3771c71074a8d7443cab9dde90a2318d5c242ac2f5d9db3d66378460040185600601546040518080602001838152602001828103825284818154600181600116156101000203166002900481526020019150805460018160011615610100020316600290048015610ac65780601f10610a9b57610100808354040283529160200191610ac6565b820191906000526020600020905b815481529060010190602001808311610aa957829003601f168201915b5050935050505060405180910390a45050565b6000809054906101000a900473ffffffffffffffffffffffffffffffffffffffff1681565b6000600254905090565b6000809054906101000a900473ffffffffffffffffffffffffffffffffffffffff1673ffffffffffffffffffffffffffffffffffffffff163373ffffffffffffffffffffffffffffffffffffffff161415610bd557600073ffffffffffffffffffffffffffffffffffffffff168173ffffffffffffffffffffffffffffffffffffffff16141515610bd457806000806101000a81548173ffffffffffffffffffffffffffffffffffffffff021916908373ffffffffffffffffffffffffffffffffffffffff1602179055505b5b50565b828054600181600116156101000203166002900490600052602060002090601f016020900481019282601f10610c1957805160ff1916838001178555610c47565b82800160010185558215610c47579182015b82811115610c46578251825591602001919060010190610c2b565b5b509050610c549190610c58565b5090565b610c7a91905b80821115610c76576000816000905550600101610c5e565b5090565b905600a165627a7a72305820e80ad8ac50f43348cd0f6913345be97fd5fed02c06a52b1b739f50ebb70ce4ea0029",
  "source": "pragma solidity ^0.4.2;\n\nimport './zeppelin/lifecycle/Killable.sol';\n\ncontract TicketExchange is Killable {\n  struct Ticket {\n    uint id;\n    address seller;\n    address buyer;\n    string eventId;\n    string eventName;\n    string eventDescription;\n    uint256 price;\n  }\n\n  // State variables\n  mapping(uint => Ticket) public tickets;\n  uint ticketCounter;\n\n  // Events\n  event SellTicketEvent (\n    uint indexed _id,\n    address indexed _seller,\n    string _eventName,\n    uint256 _price\n  );\n\n  event BuyTicketEvent (\n    uint indexed _id,\n    address indexed _seller,\n    address indexed _buyer,\n    string _eventName,\n    uint256 _price\n  );\n\n  function sellTicket(string _eventId, string _eventName, string _eventDescription, uint _price) public {\n    // New ticket\n    ticketCounter++;\n\n    // Storing ticket\n    tickets[ticketCounter] = Ticket(\n      ticketCounter,\n      msg.sender,\n      0x0,\n      _eventId,\n      _eventName,\n      _eventDescription,\n      _price\n    );\n\n    // Fire SellTicket event\n    SellTicketEvent(ticketCounter, msg.sender, _eventName, _price);\n  }\n\n  function buyTicket(uint _id) payable public {\n    // At least one ticket for sale\n    require(ticketCounter > 0);\n    // Ticket actually exists (Will never be zero or over ticketCounters value)\n    require(_id > 0 && _id <= ticketCounter);\n    \n    // Ticket exists - Fetch from array\n    Ticket storage ticket = tickets[_id];\n\n    // Ensure ticket hasn't already been bought\n    require(ticket.buyer == 0x0);\n    // Ensure ticket buyer isn't the same as the seller\n    require(ticket.seller != msg.sender);\n    // Ensure buyers value matches price in Ether\n    require(ticket.price == msg.value);\n    // Store buyers address\n    ticket.buyer = msg.sender;\n\n    // All checks passed and ticket updated with buyers details so transfer value\n    ticket.seller.transfer(msg.value);\n\n    // Trigger buy event\n    BuyTicketEvent(_id, ticket.seller, ticket.buyer, ticket.eventName, ticket.price);\n  }\n\n  function getNumberOfTickets() public constant returns (uint) {\n    return ticketCounter;\n  }\n }",
  "sourcePath": "/Users/zachshaw/projects/personal/ticketchain/contracts/TicketExchange.sol",
  "compiler": {
    "name": "solc",
    "version": "0.4.19+commit.c4cbbb05.Emscripten.clang"
  },
  "schemaVersion": "1.0.1",
  "updatedAt": "2018-01-26T16:58:23.732Z"
}