{
  "contractName": "TicketExchange",
  "abi": [
    {
      "constant": true,
      "inputs": [],
      "name": "getTicketsForSale",
      "outputs": [
        {
          "name": "",
          "type": "uint256[]"
        }
      ],
      "payable": false,
      "stateMutability": "view",
      "type": "function"
    },
    {
      "constant": false,
      "inputs": [
        {
          "name": "_eventId",
          "type": "string"
        },
        {
          "name": "_eventName",
          "type": "string"
        },
        {
          "name": "_eventDescription",
          "type": "string"
        },
        {
          "name": "_price",
          "type": "uint256"
        }
      ],
      "name": "sellTicket",
      "outputs": [],
      "payable": false,
      "stateMutability": "nonpayable",
      "type": "function"
    },
    {
      "constant": false,
      "inputs": [],
      "name": "kill",
      "outputs": [],
      "payable": false,
      "stateMutability": "nonpayable",
      "type": "function"
    },
    {
      "constant": true,
      "inputs": [
        {
          "name": "",
          "type": "uint256"
        }
      ],
      "name": "tickets",
      "outputs": [
        {
          "name": "id",
          "type": "uint256"
        },
        {
          "name": "seller",
          "type": "address"
        },
        {
          "name": "buyer",
          "type": "address"
        },
        {
          "name": "eventId",
          "type": "string"
        },
        {
          "name": "eventName",
          "type": "string"
        },
        {
          "name": "eventDescription",
          "type": "string"
        },
        {
          "name": "price",
          "type": "uint256"
        }
      ],
      "payable": false,
      "stateMutability": "view",
      "type": "function"
    },
    {
      "constant": false,
      "inputs": [
        {
          "name": "_id",
          "type": "uint256"
        }
      ],
      "name": "buyTicket",
      "outputs": [],
      "payable": true,
      "stateMutability": "payable",
      "type": "function"
    },
    {
      "constant": true,
      "inputs": [],
      "name": "owner",
      "outputs": [
        {
          "name": "",
          "type": "address"
        }
      ],
      "payable": false,
      "stateMutability": "view",
      "type": "function"
    },
    {
      "constant": true,
      "inputs": [],
      "name": "getNumberOfTickets",
      "outputs": [
        {
          "name": "",
          "type": "uint256"
        }
      ],
      "payable": false,
      "stateMutability": "view",
      "type": "function"
    },
    {
      "constant": false,
      "inputs": [
        {
          "name": "newOwner",
          "type": "address"
        }
      ],
      "name": "transferOwnership",
      "outputs": [],
      "payable": false,
      "stateMutability": "nonpayable",
      "type": "function"
    },
    {
      "anonymous": false,
      "inputs": [
        {
          "indexed": true,
          "name": "_id",
          "type": "uint256"
        },
        {
          "indexed": true,
          "name": "_seller",
          "type": "address"
        },
        {
          "indexed": false,
          "name": "_eventName",
          "type": "string"
        },
        {
          "indexed": false,
          "name": "_price",
          "type": "uint256"
        }
      ],
      "name": "SellTicketEvent",
      "type": "event"
    },
    {
      "anonymous": false,
      "inputs": [
        {
          "indexed": true,
          "name": "_id",
          "type": "uint256"
        },
        {
          "indexed": true,
          "name": "_seller",
          "type": "address"
        },
        {
          "indexed": true,
          "name": "_buyer",
          "type": "address"
        },
        {
          "indexed": false,
          "name": "_eventName",
          "type": "string"
        },
        {
          "indexed": false,
          "name": "_price",
          "type": "uint256"
        }
      ],
      "name": "BuyTicketEvent",
      "type": "event"
    }
  ],
  "bytecode": "0x6060604052336000806101000a81548173ffffffffffffffffffffffffffffffffffffffff021916908373ffffffffffffffffffffffffffffffffffffffff160217905550610ed0806100536000396000f30060606040526004361061008e576000357c0100000000000000000000000000000000000000000000000000000000900463ffffffff16806335fe12d8146100935780633652e3a5146100fd57806341c0e1b5146101e957806350b44712146101fe57806367dd74ca1461043d5780638da5cb5b146104555780639582260a146104aa578063f2fde38b146104d3575b600080fd5b341561009e57600080fd5b6100a661050c565b6040518080602001828103825283818151815260200191508051906020019060200280838360005b838110156100e95780820151818401526020810190506100ce565b505050509050019250505060405180910390f35b341561010857600080fd5b6101e7600480803590602001908201803590602001908080601f0160208091040260200160405190810160405280939291908181526020018383808284378201915050505050509190803590602001908201803590602001908080601f0160208091040260200160405190810160405280939291908181526020018383808284378201915050505050509190803590602001908201803590602001908080601f016020809104026020016040519081016040528093929190818152602001838380828437820191505050505050919080359060200190919050506106aa565b005b34156101f457600080fd5b6101fc6108f4565b005b341561020957600080fd5b61021f6004808035906020019091905050610985565b604051808881526020018773ffffffffffffffffffffffffffffffffffffffff1673ffffffffffffffffffffffffffffffffffffffff1681526020018673ffffffffffffffffffffffffffffffffffffffff1673ffffffffffffffffffffffffffffffffffffffff1681526020018060200180602001806020018581526020018481038452888181546001816001161561010002031660029004815260200191508054600181600116156101000203166002900480156103205780601f106102f557610100808354040283529160200191610320565b820191906000526020600020905b81548152906001019060200180831161030357829003601f168201915b50508481038352878181546001816001161561010002031660029004815260200191508054600181600116156101000203166002900480156103a35780601f10610378576101008083540402835291602001916103a3565b820191906000526020600020905b81548152906001019060200180831161038657829003601f168201915b50508481038252868181546001816001161561010002031660029004815260200191508054600181600116156101000203166002900480156104265780601f106103fb57610100808354040283529160200191610426565b820191906000526020600020905b81548152906001019060200180831161040957829003601f168201915b50509a505050505050505050505060405180910390f35b6104536004808035906020019091905050610a04565b005b341561046057600080fd5b610468610cec565b604051808273ffffffffffffffffffffffffffffffffffffffff1673ffffffffffffffffffffffffffffffffffffffff16815260200191505060405180910390f35b34156104b557600080fd5b6104bd610d11565b6040518082815260200191505060405180910390f35b34156104de57600080fd5b61050a600480803573ffffffffffffffffffffffffffffffffffffffff16906020019091905050610d1b565b005b610514610deb565b61051c610deb565b600080610527610deb565b600080600254141561055a5760006040518059106105425750595b908082528060200260200182016040525095506106a2565b60025460405180591061056a5750595b9080825280602002602001820160405250945060009350600192505b6002548311151561062f5760006001600085815260200190815260200160002060020160009054906101000a900473ffffffffffffffffffffffffffffffffffffffff1673ffffffffffffffffffffffffffffffffffffffff161415610622576001600084815260200190815260200160002060000154858581518110151561060b57fe5b906020019060200201818152505083806001019450505b8280600101935050610586565b8360405180591061063d5750595b90808252806020026020018201604052509150600090505b8381101561069e57848181518110151561066b57fe5b90602001906020020151828281518110151561068357fe5b90602001906020020181815250508080600101915050610655565b8195505b505050505090565b60026000815480929190600101919050555060e06040519081016040528060025481526020013373ffffffffffffffffffffffffffffffffffffffff168152602001600073ffffffffffffffffffffffffffffffffffffffff168152602001858152602001848152602001838152602001828152506001600060025481526020019081526020016000206000820151816000015560208201518160010160006101000a81548173ffffffffffffffffffffffffffffffffffffffff021916908373ffffffffffffffffffffffffffffffffffffffff16021790555060408201518160020160006101000a81548173ffffffffffffffffffffffffffffffffffffffff021916908373ffffffffffffffffffffffffffffffffffffffff16021790555060608201518160030190805190602001906107e8929190610dff565b506080820151816004019080519060200190610805929190610dff565b5060a0820151816005019080519060200190610822929190610dff565b5060c082015181600601559050503373ffffffffffffffffffffffffffffffffffffffff166002547f5035671cb930bfcad8013d41f22ad562acbeaeb8c1201fb588e400d3d34b3a9885846040518080602001838152602001828103825284818151815260200191508051906020019080838360005b838110156108b3578082015181840152602081019050610898565b50505050905090810190601f1680156108e05780820380516001836020036101000a031916815260200191505b50935050505060405180910390a350505050565b6000809054906101000a900473ffffffffffffffffffffffffffffffffffffffff1673ffffffffffffffffffffffffffffffffffffffff163373ffffffffffffffffffffffffffffffffffffffff161415610983576000809054906101000a900473ffffffffffffffffffffffffffffffffffffffff1673ffffffffffffffffffffffffffffffffffffffff16ff5b565b60016020528060005260406000206000915090508060000154908060010160009054906101000a900473ffffffffffffffffffffffffffffffffffffffff16908060020160009054906101000a900473ffffffffffffffffffffffffffffffffffffffff16908060030190806004019080600501908060060154905087565b600080600254111515610a1657600080fd5b600082118015610a2857506002548211155b1515610a3357600080fd5b60016000838152602001908152602001600020905060008160020160009054906101000a900473ffffffffffffffffffffffffffffffffffffffff1673ffffffffffffffffffffffffffffffffffffffff16141515610a9157600080fd5b3373ffffffffffffffffffffffffffffffffffffffff168160010160009054906101000a900473ffffffffffffffffffffffffffffffffffffffff1673ffffffffffffffffffffffffffffffffffffffff1614151515610af057600080fd5b348160060154141515610b0257600080fd5b338160020160006101000a81548173ffffffffffffffffffffffffffffffffffffffff021916908373ffffffffffffffffffffffffffffffffffffffff1602179055508060010160009054906101000a900473ffffffffffffffffffffffffffffffffffffffff1673ffffffffffffffffffffffffffffffffffffffff166108fc349081150290604051600060405180830381858888f193505050501515610ba957600080fd5b8060020160009054906101000a900473ffffffffffffffffffffffffffffffffffffffff1673ffffffffffffffffffffffffffffffffffffffff168160010160009054906101000a900473ffffffffffffffffffffffffffffffffffffffff1673ffffffffffffffffffffffffffffffffffffffff16837f8d79d27a773e3771c71074a8d7443cab9dde90a2318d5c242ac2f5d9db3d66378460040185600601546040518080602001838152602001828103825284818154600181600116156101000203166002900481526020019150805460018160011615610100020316600290048015610cd95780601f10610cae57610100808354040283529160200191610cd9565b820191906000526020600020905b815481529060010190602001808311610cbc57829003601f168201915b5050935050505060405180910390a45050565b6000809054906101000a900473ffffffffffffffffffffffffffffffffffffffff1681565b6000600254905090565b6000809054906101000a900473ffffffffffffffffffffffffffffffffffffffff1673ffffffffffffffffffffffffffffffffffffffff163373ffffffffffffffffffffffffffffffffffffffff161415610de857600073ffffffffffffffffffffffffffffffffffffffff168173ffffffffffffffffffffffffffffffffffffffff16141515610de757806000806101000a81548173ffffffffffffffffffffffffffffffffffffffff021916908373ffffffffffffffffffffffffffffffffffffffff1602179055505b5b50565b602060405190810160405280600081525090565b828054600181600116156101000203166002900490600052602060002090601f016020900481019282601f10610e4057805160ff1916838001178555610e6e565b82800160010185558215610e6e579182015b82811115610e6d578251825591602001919060010190610e52565b5b509050610e7b9190610e7f565b5090565b610ea191905b80821115610e9d576000816000905550600101610e85565b5090565b905600a165627a7a723058207848ace8b7d6f091f650b87d0e0b41e4d3db94a7bc8d54b375a892cd6d6202000029",
  "source": "pragma solidity ^0.4.11;\n\nimport './zeppelin/lifecycle/Killable.sol';\n\ncontract TicketExchange is Killable {\n  struct Ticket {\n    uint id;\n    address seller;\n    address buyer;\n    string eventId;\n    string eventName;\n    string eventDescription;\n    uint256 price;\n  }\n\n  // State variables\n  mapping(uint => Ticket) public tickets;\n  uint ticketCounter;\n\n  // Events\n  event SellTicketEvent (\n    uint indexed _id,\n    address indexed _seller,\n    string _eventName,\n    uint256 _price\n  );\n\n  event BuyTicketEvent (\n    uint indexed _id,\n    address indexed _seller,\n    address indexed _buyer,\n    string _eventName,\n    uint256 _price\n  );\n\n  function sellTicket(string _eventId, string _eventName, string _eventDescription, uint _price) public {\n    // New ticket\n    ticketCounter++;\n\n    // Storing ticket\n    tickets[ticketCounter] = Ticket(\n      ticketCounter,\n      msg.sender,\n      0x0,\n      _eventId,\n      _eventName,\n      _eventDescription,\n      _price\n    );\n\n    // Fire SellTicket event\n    SellTicketEvent(ticketCounter, msg.sender, _eventName, _price);\n  }\n\n  function buyTicket(uint _id) payable public {\n    // At least one ticket for sale\n    require(ticketCounter > 0);\n    // Ticket actually exists (Will never be zero or over ticketCounters value)\n    require(_id > 0 && _id <= ticketCounter);\n    \n    // Ticket exists - Fetch from array\n    Ticket storage ticket = tickets[_id];\n\n    // Ensure ticket hasn't already been bought\n    require(ticket.buyer == 0x0);\n    // Ensure ticket buyer isn't the same as the seller\n    require(ticket.seller != msg.sender);\n    // Ensure buyers value matches price in Ether\n    require(ticket.price == msg.value);\n    // Store buyers address\n    ticket.buyer = msg.sender;\n\n    // All checks passed and ticket updated with buyers details so transfer value\n    ticket.seller.transfer(msg.value);\n\n    // Trigger buy event\n    BuyTicketEvent(_id, ticket.seller, ticket.buyer, ticket.eventName, ticket.price);\n  }\n\n  function getNumberOfTickets() public constant returns (uint) {\n    return ticketCounter;\n  }\n\n  // Get all tickets for sale returning an array of ticketIds\n  function getTicketsForSale() public constant returns (uint[]) {\n    // Check at least one ticket for sale\n    if (ticketCounter == 0) {\n      // Returns array of length zero so frontend can handle this\n      return new uint[](0);\n    }\n\n    // Prepare array for all tickets as ticketIds with new array length ticketCounter\n    uint[] memory ticketIds = new uint[](ticketCounter);\n\n    uint numberOfTicketsForSale = 0;\n\n    for (uint i = 1; i <= ticketCounter; i++) {\n      if (tickets[i].buyer == 0x0) {\n        ticketIds[numberOfTicketsForSale] = tickets[i].id;\n        numberOfTicketsForSale++;\n      }\n    }\n\n    // Create new array just for tickets that have not been sold yet\n    uint[] memory ticketsForSale = new uint[](numberOfTicketsForSale);\n\n    for (uint j = 0; j < numberOfTicketsForSale; j++) {\n      ticketsForSale[j] = ticketIds[j];\n    }\n    \n    return (ticketsForSale);\n  }\n }",
  "sourcePath": "/Users/zachshaw/projects/personal/ticketchain/contracts/TicketExchange.sol",
  "compiler": {
    "name": "solc",
    "version": "0.4.19+commit.c4cbbb05.Emscripten.clang"
  },
  "schemaVersion": "1.0.1",
  "updatedAt": "2018-01-26T20:46:09.398Z"
}